:020000040800F2
:10000000600500209D010008531800083B170008F8
:1000100051180008ED020008B92000080000000097
:10002000000000000000000000000000451B000868
:10003000050300080000000055180008471B0008D1
:10004000DD010008DD010008DD010008DD01000818
:10005000DD010008DD010008DD010008DD01000808
:10006000DD010008DD010008DD010008DD010008F8
:10007000DD010008DD010008DD010008F1020008D3
:10008000DD010008DD010008DD010008DD010008D8
:10009000DD010008DD010008DD010008DD010008C8
:1000A000DD010008DD010008DD010008DD010008B8
:1000B000DD010008DD010008DD010008DD010008A8
:1000C000DD010008DD010008DD010008DD01000898
:1000D000DD0100088D200008AD200008DD010008CA
:1000E00007030008DD010008DD010008DD0100084C
:1000F000DD010008DD010008DD010008DD01000868
:10010000DD010008DD010008DD010008DD01000857
:10011000DD010008DD010008DD010008DD01000847
:10012000DD010008DD010008DD010008DD01000837
:10013000DD010008DD010008DD010008DD01000827
:10014000DD010008DD010008DD010008DD01000817
:10015000DD010008DD010008DD010008DD01000807
:10016000DD010008DD010008DD010008DD010008F7
:10017000DD010008DD010008DD01000800000000CD
:10018000DD010008DD010008DFF80CD000F09CF86C
:1001900000480047F9200008600500201048114978
:1001A000026800608A4203D00F4880470F4800472A
:1001B0000F484FF0010101600E484FF0010101604E
:1001C0000D48D0F800D040680047FEE7FEE7FEE7A4
:1001D000FEE7FEE7FEE7FEE7FEE7FEE7FEE70000DC
:1001E000F0FF00202CE1ABA7BD1B0008890100082F
:1001F00060100240000001400000FF1F2DE9F05F89
:100200000546002092469B46884606468146402485
:100210001BE0284641464746224600F044F8534634
:100220005A46C01A914110D311461846224600F092
:100230002BF82D1A67EB01084F46224601200021BA
:1002400000F022F817EB00094E41201EA4F1010432
:10025000DFDC484631462A46434600F000B830BC51
:10026000BDE8C09FD2B201E000F8012B491EFBD2CD
:1002700070470022F6E710B513460A4604461946B1
:10028000FFF7F0FF204610BD202A04DB203A00FAD9
:1002900002F1002070479140C2F1200320FA03F3DD
:1002A000194390407047202A04DB203A21FA02F0DB
:1002B0000021704721FA02F3D040C2F120029140A0
:1002C0000843194670470000064C074D06E0E068F9
:1002D00040F0010394E8070098471034AC42F6D38D
:1002E000FFF756FFC4210008E4210008FEE70000E4
:1002F00010B5034800F038F8BDE8104001F004BC28
:1003000014010020704710B54FF4005000F0FEF8C3
:10031000BDE8104001F0F8BB704710B590F825100B
:100320000024022903D00421C16301241AE00168DA
:100330000A6822F00E020A6001680A6822F00102CF
:100340000A6090F84410036C01F01C02012101FACC
:1003500002F25A6080F82510002180F82410816B89
:1003600001B18847204610BDF0B4016C0C680168EB
:100370000D6890F8442002F01C06042202FA06F3ED
:10038000234211D06B070FD50B689B0603D40B6873
:1003900023F004030B6090F8441001F01C018A4024
:1003A000016C4A60016B1DE0022303FA06F7274245
:1003B0004FF0000C4FF0010218D0AF0716D50C68B3
:1003C000A40605D40C6824F00A040C6080F82520EB
:1003D00090F8441001F01C018B40016C4B6080F8D8
:1003E00024C0C16A00291AD0F0BC08470823B340D2
:1003F000234214D02B0712D50B6823F00E030B6099
:1004000090F84410036C01F01C0102FA01F15960EC
:10041000C26380F8252080F824C0416BE2E7F0BC7D
:100420007047000070B568B12B4C036814212B4A4B
:10043000A34209D22A4C1C44B4FBF1F18900C0E963
:1004400010210BE0012070BD234C64421C44B4FB1E
:10045000F1F189004164204908390164022180F8E2
:1004600025101C6847F6F0718C43D0E9021529432A
:10047000D0E904563543294385692943C569294391
:10048000056A2943214319608168B1F5804F19D06D
:10049000036C0F21934202D152F8A83F02E00E4AAA
:1004A000A032136890F8444004F01C04A1408B4330
:1004B000136090F84430416803F01C0399401368BE
:1004C000194311600021C163012280F8252080F8C2
:1004D0002410084670BD00000804024000000240DD
:1004E000F8FFFDBF70B5044600F05CF90546601CDE
:1004F00002D004484068044400F054F9401BA04274
:10050000FAD370BD0400002070470000044910B504
:100510000A68024202D00860FFF7F6FF10BD000033
:10052000140401402DE9F04FDFF83492002309F163
:10053000040A012403250AF1040B87B00F270BF1ED
:10054000040E04E104FA03F632407CD0D1F804C072
:10055000BCF1010F08D0BCF1020F05D0BCF1110FA6
:1005600002D0BCF1120F29D1D0F808C0CDF800C0DC
:100570004FEA430C05FA0CF8CDF80CC0DDF800C0CA
:100580002CEA080CCDF800C0D1F80C80DDF80CC0C6
:1005900008FA0CF8DDF800C048EA0C08C0F808803A
:1005A000D0F8048091F804C028EA0608CCF3001CB7
:1005B0000CFA03FC4CEA080CC0F804C0D1F8048023
:1005C0006FEA080C5FEA8C7C09D1D0F82CC02CEAC9
:1005D000060CC8F3C0069E4046EA0C06C662D0F878
:1005E0000CC04FEA430805FA08F62CEA060CCDF8D1
:1005F000148002968E6806FA08F646EA0C06C66073
:100600004E68022E01D0122E15D1DE0800EB8606B0
:100610000396366A4FEA437C4FEADC6807FA08FC27
:1006200026EA0C06D1F810C00CFA08FC4CEA060CBD
:10063000039EC6F820C00668DDF808C026EA0C064E
:1006400091F804C000E081E0DDF814800CF0030CA8
:100650000CFA08FC4CEA060CC0F800C04E68F60024
:1006600074D5404ED6F860C04CF0010CC6F860C09E
:10067000366E23F0030C06F0010600963A4E6644EF
:100680000296D6F808C09E074FEA167807FA08F6D1
:100690002CEA060CB0F1904F04D0344EB04203D196
:1006A00001261BE0002619E0314EB04201D102269E
:1006B00014E0304EB04201D103260FE02E4EB0427E
:1006C00001D104260AE02D4EB04201D1052605E0F5
:1006D0002B4EB04201D1062600E0072606FA08F6A6
:1006E00046EA0C06DDF808C0CCF80860D9F80060CE
:1006F000CC46D1F8048096435FEAC83800D516434B
:10070000CCF80060DAF80060D446D1F80480964353
:100710005FEA883800D51643CCF80060DBF800604B
:10072000DC46D1F8048096435FEAC82800D516431A
:10073000CCF80060DEF80060F446D1F804809643FF
:100740005FEA882800D51643CCF800605B1C0A6875
:1007500032FA03F67FF4F6AE07B000F013B80000EB
:100760000004014000100240000001400004004865
:1007700000080048000C0048001000480014004821
:100780000018004830BCBDE8C08F42690A4201D061
:1007900081627047816170470AB1816170478162EF
:1007A0007047000001488068704700000400002086
:1007B000024881684268114481607047040000204B
:1007C000094810B50168002441F4807101600320DC
:1007D00000F07EF8002000F009F808B1012401E0E3
:1007E00000F026F8204610BD0020024070B50E4EE5
:1007F00005460024706898B14FF47A71B1FBF0F0AF
:100800000A490968B1FBF0F000F022FE40B9102D52
:1008100006D200222946501E00F03AF8356000E06A
:100820000124204670BD00000400002010000020BC
:10083000094808B5016E41F001010166016E01F041
:1008400001010091816D41F080518165806D00F062
:100850008050009008BD000000100240002809DB15
:1008600000F01F02012191404009800000F1E020CA
:10087000C0F880127047002809DB00F01F02012138
:1008800091404009800000F1E020C0F8001170475D
:10089000F0B40E4B1B680C46C3F30223C3F10705EB
:1008A000042D00D90425191D072901D2002300E0D9
:1008B000DB1E012606FA05F1491E214099409E40A3
:1008C000761E16403143F0BC01F0F7BB0CED00E0A2
:1008D000064900F0070208684FF6FF03184040EA97
:1008E0000220034A10430860704700000CED00E04E
:1008F0000000FA051649B0F5007F0868C0F34120F2
:1009000009D0022805D0086820F4C06040F4806057
:100910000860002070470128FBD0086820F4C06000
:1009200040F4007008600B483222006850430A4AC5
:10093000B0FBF2F0401C00E0401E4A69520501D5B0
:100940000028F9D148694005E3D50320704700002D
:10095000007000401000002040420F000248006874
:1009600000F4C06070470000007000402DE9F84FAF
:10097000044600270088E54D3E46010504F1200BA2
:100980001DD5606E78B1B0F5800F11D0B0F5000FB5
:1009900004D0B0F5400F22D001270FE0E86840F402
:1009A0008030E8601BE00021201D00F055FF03E0CF
:1009B0000021584600F0E6FF070010D03E46208890
:1009C000C00426D5A06EC0B1B0F1807F1AD0B0F1BE
:1009D000007F0DD0B0F1407F19D0012718E0D5F885
:1009E0008800616E20F440000843C5F88800E6E7FF
:1009F000E86840F48030E86009E00021201D00F044
:100A00002BFF03E00021584600F0BCFF0746F7B17A
:100A10003E46206880033AD5A86D4FF00008C0001C
:100A200009D4A86D40F08050A865A86D4FF001086A
:100A300000F080500090DFF8D8A2DAF8001041F4FE
:100A40008071CAF80010FFF7ADFE814610E0D5F8BE
:100A50008800A16E20F040700843C5F88800D8E7F0
:100A6000FFF7A0FEA0EB0900022801D9032705E04B
:100A7000DAF80000C005F3D5002F7CD04FEA070656
:100A8000B8F1000F03D0A86D20F08050A865207841
:100A9000C00707D0D5F88800A16B20F003000843F9
:100AA000C5F888002078800707D5D5F88800E16B65
:100AB00020F00C000843C5F888002078400707D5CF
:100AC000D5F88800216C20F030000843C5F8880074
:100AD0002078000707D5D5F88800616C20F0C000A9
:100AE0000843C5F888002078C00607D5D5F88800E7
:100AF000A16C20F440700843C5F888002078800677
:100B000007D5D5F88800E16C20F440600843C5F8AB
:100B100088002088800507D5D5F88800E16D20F48D
:100B200040200843C5F888002088400507D5D5F83F
:100B30008800216E20F440100843C5F88800207812
:100B4000400607D5D5F88800216D20F440500843B1
:100B5000C5F888002078000607D5D5F88800616DB3
:100B600020F440400843C5F888002088C00509D516
:100B7000D5F8880000E01CE0A16D20F44030084367
:100B8000C5F8880020884FF0006780044FF0806827
:100B90004FD5D5F88800E16E20F040600843C5F8D5
:100BA0008800E06EB8423CD1E86840F48010E8600C
:100BB0003FE0D5F8900010F4407015D0D4F88410C0
:100BC000814211D0D5F89000D5F8901020F44070F3
:100BD00041F48031C5F89010D5F8901021F480319F
:100BE000C5F89010C5F89000C00710D0FFF7DAFDE7
:100BF000074641F2883906E0FFF7D4FDC11B49459D
:100C000001D903263CE7D5F890008007F4D5D5F844
:100C10009000D4F8841020F440700843C5F8900088
:100C20002EE7404505D10121201D00F015FE00B141
:100C300006462068000317D5D5F88800216F20F0FC
:100C400040600843C5F88800206FB84204D1E868C6
:100C500040F48010E86007E0404505D10121201DE7
:100C600000F0FAFD00B106462068400317D5D5F81C
:100C70008800616F20F040600843C5F88800606F0D
:100C8000B84204D1E86840F48010E86007E04045CD
:100C900005D10121201D00F0DFFD00B106462088AE
:100CA00040041AD5D5F88800A16F20F040500843C1
:100CB000C5F88800A06FB0F1805F03D0B0F1005F8D
:100CC00005D00AE00221201D00F0C6FD03E002214C
:100CD000584600F057FE00B106462088000407D5AC
:100CE000D5F88800E16F20F080400843C5F88800FF
:100CF0002068C00307D555F8880FD4F8801020F07D
:100D0000004008432860304600F004B8001002405C
:100D10000070004018BCBDE8E08F00002DE9F047EE
:100D20000F46050058D0404E306800F00700B8422A
:100D300009D2306820F0070038433060306800F096
:100D40000700B84248D12878384CC0072CD06868D2
:100D5000032811D0022812D0216898B14905002932
:100D60003ADAA16821F003010143A160FFF71AFDFF
:100D7000804641F2883910E021688901EFE7216857
:100D80008903ECE78907EAE7FFF70CFDA0EB080110
:100D9000494502D90320BDE8F087A068696800F0E2
:100DA0000C00B0EB810FEFD12878800705D5A06843
:100DB000A96820F0F0000843A060306800F0070048
:100DC000B8420BD9306820F00700384330603068F3
:100DD00000F00700B84201D00120DCE72878400786
:100DE00005D5A068E96820F4E0600843A060287891
:100DF000000706D5A068296920F4605040EAC100C8
:100E0000A06000F03FF8A168094AC1F30311515CEA
:100E100001F01F01C8400749086007480068BDE8A5
:100E2000F047FFF7E3BC0000002002400010024042
:100E30007C2100081000002004000020054806491D
:100E400000688968054AC1F30221515C01F01F0165
:100E5000C84070471000002000100240BC2100086C
:100E60000548064900688968054AC1F3C221515CFA
:100E700001F01F01C8407047100000200010024020
:100E8000BC21000870B52549002318468A68CC6843
:100E900012F00C0204F00306214C4FEA640509D05D
:100EA0000C2A05D0042A32D0082A00D1284670BD69
:100EB000012E10D10B681B0704D4D1F89430C3F372
:100EC000032302E00B68C3F30313164E56F82330D6
:100ED000DAB10C2AEBD1C86800F00300022818D060
:100EE000032818D01846CA68CB68C2F30212C3F3AD
:100EF00006234343521CB3FBF2F2C868C0F34160BF
:100F0000401C4000B2FBF0F070BD184670BD20469A
:100F100070BD2046E7E72846E5E7000000100240E4
:100F20000024F4008C2100082DE9F84304006FD060
:100F3000FE4DA86800F00C06E86800F00307207872
:100F4000C00664D576B10C2E01D1012F0AD0A0695C
:100F5000002828687AD040F001002860FFF722FCC2
:100F600080465DE02868800702D5A0690028DED0B1
:100F7000216A2868000703D5286800F0F00004E023
:100F8000D5F89400F02202EA1010814216D90846E2
:100F900000F07CFD00283BD1286840F00800286064
:100FA0002868216A20F0F000084328606868E16939
:100FB00020F47F4040EA0120686016E0286840F095
:100FC000080028602868216A20F0F00008432860A3
:100FD0006868E16920F47F4040EA0120686026B932
:100FE000206A00F053FD0028D5D1FFF74BFFA96818
:100FF000CF4AC1F30311515C01F01F01C840CD4934
:101000000860CD480068FFF7F1FB00287ED12EE094
:10101000CAE000BFFFF7C6FBA0EB0800022876D8A5
:1010200028688007F6D5286840F0080028602868FE
:10103000216A20F0F000084328606868E16920F424
:101040007F4040EA0120686011E0FFE720F00100E6
:101050002860FFF7A7FB804606E000BFFFF7A2FB72
:10106000A0EB08000228DAD828688007F6D4207898
:10107000C00740D0082E18D00C2E01D1032F14D059
:101080006068B0F5803F17D0B0F5A02F286817D062
:1010900020F480302860286820F480202860606870
:1010A000E0B1FFF77FFB804614E02868800322D57B
:1010B0006068002878D01EE0286840F48030EDE7B2
:1010C00040F480202860F7E7FFF76CFBA0EB0800F6
:1010D0006428A4D828688003F6D50CE0FFF762FBEB
:1010E000804605E0FFF75EFBA0EB0800642896D879
:1010F00028688003F6D4207880073BD5042E11D0D1
:101100000C2E01D1022F0DD0E06801E092E1F1E058
:10111000002828681ED040F480702860FFF742FB4A
:1011200007460CE0286840050CD5E0680028C1D0CF
:1011300008E000BFFFF736FBC01B022893D82868E1
:101140004005F7D56868217C20F0F85040EA01603E
:1011500068600FE020F480702860FFF723FB0746EB
:1011600005E000BFFFF71EFBC01B0228B1D82868AE
:101170004005F7D42078000729D560690028D5F804
:10118000940012D040F00100C5F89400FFF70AFB6C
:10119000074604E0FFF706FBC01B022899D8D5F8E4
:1011A00094008007F6D512E000E120F00100C5F8B8
:1011B0009400FFF7F7FA074605E000BFFFF7F2FAE1
:1011C000C01B022885D8D5F894008007F6D4207873
:1011D000400766D5A86D0027C00008D4A86D40F070
:1011E0008050A865A86D012700F0805000905348FA
:1011F0000168C90512D40168814641F4807101601B
:10120000FFF7D0FA804605E0FFF7CCFAA0EB080024
:1012100002286FD8D9F80000C005F5D5A0680128CC
:1012200016D00528D5F8900017D020F00100C5F899
:101230009000D5F8900020F0040000BFC5F89000A1
:10124000A06841F28839C0B1FFF7ACFA80460FE0E0
:10125000D5F8900040F00100F0E740F00400C5F838
:101260009000F5E7FFF79EFAA0EB0801494541D849
:10127000D5F890008007F5D50EE0FFF793FA804689
:1012800006E000BFFFF78EFAA0EB0801494531D810
:10129000D5F890008007F5D41FB1A86D20F08050DC
:1012A000A865A06A38B302280AD00C2E7ED0286820
:1012B00020F080702860286810F0205F77D0AAE0C6
:1012C000E868E26A00F0030191422BD1216B00F043
:1012D000700209011039914224D1626B00F4FE4181
:1012E000B1EB022F1ED1A26B00F40031072A03D00C
:1012F000012202E09DE089E00022914212D1A18FFB
:1013000000F4C00249084905A1F50011914209D134
:1013100094F8401000F0C06049084906A1F100713E
:1013200081425CD00C2E41D0286809E000100240B8
:101330007C21000810000020040000200070004004
:1013400040017ED42868C0007BD4286820F08070DB
:101350002860FFF727FA064605E000BFFFF722FAEC
:10136000801B022865D828688001F7D4D4E90B01D6
:101370006FF00F0202EB01110843A18F52044908DC
:1013800002EB4151626B41EA0221084394F840109C
:101390004FF07E42490802EB41610843A16B090905
:1013A00040EA4140E968284A114001E049E02EE066
:1013B0000843E860286840F080702860E86840F0E2
:1013C0008070E860FFF7EEF9044604E0FFF7EAF901
:1013D000001B02282DD828688001F7D52FE0286847
:1013E00080012CD4286840F080702860E86840F0C4
:1013F0008070E860FFF7D6F9044604E0FFF7D2F901
:10140000001B022815D828688001F7D517E0E86886
:1014100020F00300E860E8680C490840E860FFF746
:10142000C1F9044608E000BFFFF7BCF9001B022821
:1014300002D90320BDE8F88328688001F4D4002095
:10144000F8E70120F6E700008C809DF9FFFFEEFE33
:1014500010B5401EB0F1807F01D3012010BD4FF0C8
:10146000E02460610F21601700F027FE0020A061DA
:1014700007202061002010BD704770472DE9F04122
:1014800002680446D0691168936840F60F05284247
:101490004FF0000505D186067BD58E0679D5216EE5
:1014A00088E003F0010601F49077374371D0C70755
:1014B00007D0CF0505D501271762E26F42F0010280
:1014C000E267820708D5DA0706D0276802223A6267
:1014D000E26F42F00402E267420708D5DA0706D05D
:1014E000236804221A62E26F42F00202E2670207F6
:1014F0000AD501F02002324306D0236808221A627E
:10150000E26F42F00802E267020509D54A0107D5F9
:1015100023684FF400621A62E26F42F02002E26731
:10152000E26F002A2ED0800605D5880603D5216EED
:1015300009B120468847E06F21688968490602D4CE
:1015400010F0280F20D0204600F0F4FB20688168BE
:10155000490614D5816821F040018160E06E70B1C8
:101560001D498163E06EFEF7D8FE00280AD0E06EC8
:10157000816B00E02046BDE8F041084709E02046C5
:10158000FFF77BFFBDE8F0812046FFF776FFE567B8
:10159000F8E7C60209D55B0207D54FF48010106248
:1015A0002046BDE8F041FFF767BF030605D50B06EF
:1015B00003D5616E0029DDD1E4E74006E2D5480697
:1015C000E0D51168204621F04001116020216167BB
:1015D000656600F0B1F8D5E7211D000810B50400DC
:1015E00002D0606F10B107E0012010BD002084F828
:1015F0007000204600F026F824206067206801680B
:1016000021F001010160204600F0A4FB0128ECD08C
:10161000606A10B1204600F0F3FA2068416821F4B6
:10162000904141602068816821F02A018160206832
:10163000016841F0010101602046BDE8104000F062
:1016400043BB0000F0B587B0064614216846FEF79C
:1016500010FEDFF8D0C0346800253348022703218C
:1016600007224FF09043644534D1046E44F4804423
:101670000466046E04F480440594C46C44F00104D0
:10168000C464C06C029500F001000590CDE903121E
:101690004802CDE9000769461846FEF743FF244C8F
:1016A00022482060C4E901758020C4E903506561C7
:1016B000A561E56120462562FEF7B4FE08B1FEF79C
:1016C0002BFEF466002211462520A662FFF7E0F803
:1016D000252022E0174EB44221D1846D44F4003419
:1016E0008465846D04F400340594C46C44F00104F2
:1016F000C464C06C029500F001000590CDE90312AE
:101700000C20CDE9000769461846FEF70BFF0022C2
:1017100011462620FFF7BCF82620FFF7ACF807B0EB
:10172000F0BD0000003801400010024058000240A7
:1017300014010020004400407047FEE730B587B038
:1017400014216846FEF795FD2348C16C41F0040161
:10175000C164C16C01F004010591C16C41F08001CC
:10176000C164C16C01F080010591C16C41F00101BF
:10177000C164C16C01F001010591C16C41F002012D
:10178000C164C06C4FF0904500F00200059000224B
:1017900020212846FFF700F84FF4005000900F4832
:1017A0000024CDE9010469460D48FEF7BBFE202068
:1017B00000900120CDE90104694628460394FEF714
:1017C000B1FE002211462820FFF762F82820FFF71B
:1017D00052F807B030BD0000001002400000211098
:1017E000000800480E480D494FF4806201604FF434
:1017F000E13141604FF4805181600021C0E9031262
:101800000C22C0E90521C1610162402141628903C6
:10181000016489004164FFF7E1BE00000038014027
:10182000140000200948084901604FF4E13141608B
:10183000002181600C22C160C0E904128161C16194
:1018400001624162FFF7CABE0044004094000020DC
:10185000FEE77047704700002DE9F041444C054613
:101860008846E0680026810728680DD0E16801F00D
:101870000301814216D1A8B1E0686968C0F3021083
:10188000401C88420ED120E0012804D0022805D057
:10189000032807D108E02168890701E0216849058C
:1018A000002907DB01265FE02168890302D4216853
:1018B0004903F5E7E1686A686FF00F0321F07301EF
:1018C00003EB021211430143E160206820F08060C5
:1018D0002060FEF767FF074605E000BFFEF762FFE6
:1018E000C01B022837D820680001F7D4B8F1000FD8
:1018F00018D0B8F1010F1ED0287D4FF07E4140086E
:1019000001EB4060A96840EA01202169194A1140B1
:1019100008432061206840F080602060FEF742FFAD
:1019200007461AE0A868E9680002090940EA414050
:101930002169114AEBE7288A1049400801EB405021
:10194000A96840EA012021690D4AE0E7FEF72AFF75
:10195000C01B022801D9032606E020680001F5D546
:101960002069A969084320613046BDE8F081000084
:1019700000100240FF80FFF9FF80FDFF0000E0FF44
:10198000FF809FFF2DE9F0413D4C06468846E06808
:101990000025810730680DD0E16801F00301814224
:1019A00016D1A8B1E0687168C0F30210401C8842EB
:1019B0000ED120E0012804D0022805D0032807D149
:1019C00008E02168890701E021684905002907DB53
:1019D000012551E02168890302D421684903F5E714
:1019E000E16872686FF00F0321F0730103EB0212DC
:1019F00011430143E160206820F080502060FEF731
:101A0000D1FE074605E000BFFEF7CCFEC01B022852
:101A100029D820688000F7D4B8F1000F15D0307CA9
:101A20004FF07E41400801EB4060B16840EA012080
:101A30006169144A114008436061206840F0805099
:101A40002060FEF7AFFE07460FE0B068F1680002C5
:101A5000090940EA414061690B4AEBE7FEF7A2FE43
:101A6000C01B022801D9032506E020688000F5D5B7
:101A700060697169084360612846BDE8F081000033
:101A800000100240FF80FFF9FF80FDFFF8B51C4DFC
:101A900006460024A86DC00002D5FEF75FFF0DE0EA
:101AA000A86D40F08050A865A86D00F080500090AF
:101AB000FEF754FFA96D21F08051A965B0F5007FB4
:101AC00004D0802E07D94FF003040AE0802E08D9F5
:101AD000A02E01D804E001D1022402E0702E00D132
:101AE00001240848016821F00701214301600068D2
:101AF00000F00700A04201D00120F8BD0020F8BD91
:101B000000100240002002400B490A4808602520CE
:101B1000FEF7A4FEBFF34F8FBFF34F8F0748016856
:101B2000074A01F4E06111430160BFF34F8F00BF2A
:101B3000FDE700002CE1ABA7F0FF00200CED00E07A
:101B40000400FA057047FEF733BE30B5B9B0442142
:101B500022A8FEF78EFB142133A8FEF78AFB88210A
:101B60006846FEF786FB0220C101259110212290D4
:101B700026912C900121CDE92D010A212F910721D9
:101B8000CDE93010329022A8FFF7CEF900240325CA
:101B90000F20CDE9345433903694042133A8379480
:101BA000FFF7BCF800950E9468460F94FEF7DEFE32
:101BB0004FF40070FEF79EFE39B030BD0D4801684D
:101BC00041F4700101600C48016841F001010160BD
:101BD000002181600268094B1A4002608214C260D1
:101BE000026822F48022026081610249C0038039C8
:101BF0000860704788ED00E000100240FFFFF6EA41
:101C000090F82410C90706D001684A68836A22F454
:101C100000321A434A6090F82410890706D50168FB
:101C20004A68C36A22F480321A434A6090F824104A
:101C3000490706D501684A68036B22F480221A43DB
:101C40004A6090F82410090706D501684A68436B7A
:101C500022F400421A434A6090F82410C90606D5BF
:101C600001688A68836B22F480521A438A6090F874
:101C70002410890606D501688A68C36B22F40052D5
:101C80001A438A6090F82410490611D501684A6801
:101C9000036C22F480121A434A60016CB1F5801F74
:101CA00006D101684A68436C22F4C0021A434A60B4
:101CB00090F82410090606D501684A68806C22F461
:101CC000002202434A607047F8B500260446C66702
:101CD000FEF768FD0546206800686FF07E47000744
:101CE00008D52B4600224FF400112046009700F043
:101CF0007BF960B92068006840070AD52B460022AE
:101D00004FF480012046009700F06EF908B10320DF
:101D1000F8BD20206067A06784F870600020F8BDDF
:101D200010B5806A0021A0F85A10A0F85210FFF7F1
:101D3000A4FB10BD01680A6822F490720A60016871
:101D40008A6822F001028A602021816700210166F1
:101D5000704700002DE9F0410546016880682B6955
:101D6000EC6918436B69002723431843924A0B68B8
:101D7000924C234003430B6028684168EB6821F4D0
:101D80004051194341602968A869914201D02B6AEA
:101D900018438B6823F4306303438B60884B2968B6
:101DA000884899420DD1D0F8880010F0030006D081
:101DB000012868D0022864D0032851D165E00124AD
:101DC0004FE0814B99420BD1D0F8880010F00C0005
:101DD00055D0042857D0082853D00C2840D154E0BF
:101DE0007A4B99420BD1D0F8880010F0300046D0E1
:101DF000102848D0202844D0302831D145E0744BF9
:101E000099420BD1D0F8880010F0C00037D040289C
:101E100039D0802835D0C02822D136E06D4B994288
:101E20000ED1D0F8880010F4407028D0B0F5807F33
:101E300029D0B0F5007F24D0B0F5407F10D124E048
:101E400091420DD1D0F8880010F4406017D0B0F561
:101E5000806F18D0B0F5006F13D0B0F5406F14D07C
:101E600010245D4B00264FF40040914245D174B1DF
:101E7000022C0FD0042C0FD0082C18D10FE0002416
:101E8000EFE70224EDE70424EBE70824E9E7FEF797
:101E9000D5FF03E0184602E0FEF7F4FFA8B36A6836
:101EA00002EB4201814202D8B0EB023F01D9012787
:101EB0006FE0DFF828815CB1022C0CD0042C13D029
:101EC000082CF4D150082105401846F1000105E026
:101ED000FEF7B4FF0AE050084149F5E70023FEF79A
:101EE0008DF9A0F5407150E0FEF7CCFF6A68010E55
:101EF0000302500818187141F0E7E9694FF6EF78CE
:101F000081422FD1092CD2D200E042E0DFE804F078
:101F100006092005230505052600C8E7FEF78EFF04
:101F200001E0FEF79DFF4100D5F8040001EB5001F0
:101F3000B1FBF0F080B2A0F110014145B7D84FF6E7
:101F4000F0710140C0F3420001432868C16020E005
:101F500024496868EAE7FEF795FFE4E74FF480312B
:101F60006868E3E7092CA2D2DFE804F00609180547
:101F70001E05050520009AE7FEF760FF16E0FEF754
:101F80006FFF13E080B2A0F1100141458FD829689E
:101F9000C8602E6638466E66BDE8F081686803EB5F
:101FA0005001B1FBF0F0EDE7FEF76CFF696800EB64
:101FB0005100B0FBF1F0E5E700800040F369FFEF6E
:101FC000003801400010024000440040004800403A
:101FD000004C0040005000400024F400FFFC0F00C3
:101FE000000024F40048E8012DE9F0479A4617461E
:101FF0000E4604464FF000094FF02008089D39E0D6
:10200000681C37D0FEF7CEFBA0EB0A00A84222D80E
:102010000DB32068016849072CD5C069C04300058D
:1020200028D421684FF4006008622068016821F418
:10203000D07101602068816821F001018160C4F8DD
:102040007480C4F87880C4F87C8000BF84F87090F5
:102050000320BDE8F0872068016821F4D071016099
:102060002068816821F001018160C4F87480C4F89F
:102070007880EBE72068C06936EA000004D00020D1
:10208000B842BDD00020E4E70120F9E710B50648CA
:10209000FFF7F4F904480068C069800603D5BDE87D
:1020A0001040FFF731BD10BD140000200148FFF7BC
:1020B000E5B9000094000020FEE70907090E00289A
:1020C00004DB00F1E02080F80014704700F00F00FE
:1020D00000F1E02080F8141D704702E008C8121FCC
:1020E00008C1002AFAD170477047002001E001C101
:1020F000121F002AFBD170471E4C08B5002020702B
:10210000FEF75EFBFFF721FDFFF718FB1A48816C15
:1021100041F001018164806C002200F00100009018
:1021200011460F20FEF7B4FB0F20FEF7A4FBFFF7CC
:1021300079FBFFF757FB4FF4C8754FF090462078B6
:1021400058B101280BD0022811D00328F7D1002262
:1021500020213046FEF720FBF1E7284600E0C820AA
:10216000FEF7C0F920213046FEF70FFBE7E701221A
:10217000EEE7000000000020001002400000000018
:10218000000000000102030406070809A086010000
:10219000400D0300801A060000350C0040420F007D
:1021A00080841E0000093D0000127A000024F40023
:1021B00000366E010048E801006CDC0200000000FF
:1021C00001020304E42100080000002014000000C4
:1021D000DA200008F8210008140000204C05000057
:1021E000EA200008000000001000000001000000CC
:0821F0000000000000093D00A1
:040000050800018965
:00000001FF
